:020000040800F2
:10000000F05200205D0200085D570008733D0008B3
:100010009554000891070008796E00080000000060
:100020000000000000000000000000009D0100082A
:10003000290E000800000000F901000845660008CC
:1000400077020008770200087702000877020008AC
:10005000770200087702000877020008770200089C
:10006000770200087702000877020008770200088C
:10007000F1080008FD080008090900081509000832
:10008000210900082D09000877020008B9070008B7
:100090009507000877020008770200087702000839
:1000A000770200081D670008770200081167000842
:1000B00029670008356700084167000877020008D3
:1000C0007702000877020008770200084163000801
:1000D0007702000877020008CD6D0008ED6D00087A
:1000E000770200087702000877020008770200080C
:1000F00077020008770200087702000877020008FC
:1001000077020008770200084D67000877020008B0
:10011000856A00087702000877020008596700081E
:10012000390900087702000877020008450900082D
:1001300077020008000000000000000077020008BD
:1001400077020008770200087702000877020008AB
:10015000770200087702000877020008770200089B
:10016000770200087702000877020008770200088B
:10017000770200087702000800000000000000007D
:100180007702000877020008DFF80CD000F0E6F9EB
:100190000048004741780008F05200202C4B1968B5
:1001A0000868B0E8F04F80F30988BFF36F8F4FF015
:1001B000000080F3118870470000000008480068C4
:1001C000006880F308884FF0000080F3148862B65E
:1001D00061B6BFF34F8FBFF36F8F00DF00BF00BF6B
:1001E00008ED00E0DFF80C00016841F470010160E7
:1001F000704700BF88ED00E0EFF30980BFF36F8F19
:10020000134B1A681EF0100F08BF20ED108A20E96A
:10021000F04F106009B44FF0500080F31188BFF325
:100220004F8FBFF36F8F07F0BBFF4FF0000080F3DD
:10023000118809BC19680868B0E8F04F1EF0100F6B
:1002400008BFB0EC108A80F30988BFF36F8F704746
:100250008C000020EFF305807047000006488047BF
:1002600006480047FEE7FEE7FEE7FEE7FEE7FEE79B
:10027000FEE7FEE7FEE7FEE7F566000889010008F5
:100280002DE9F05F0546002092469B4688460646CB
:10029000814640241BE0284641464746224600F05E
:1002A000F0F853465A46C01A914110D311461846E9
:1002B000224600F0D7F82D1A67EB01084F46224678
:1002C0000120002100F0CEF817EB00094E41201E5E
:1002D000A4F10104DFDC484631462A464346BDE826
:1002E000F09F40EA01039B0703D009E008C9121FF1
:1002F00008C0042AFAD203E011F8013B00F8013BE0
:10030000521EF9D27047D2B201E000F8012B491E0B
:10031000FBD270470022F6E710B513460A460446A2
:100320001946FFF7F0FF204610BD2DE9FE4F81EA88
:10033000030404F0004421F0004100944FF0000B4E
:1003400023F0004350EA01045ED052EA03045BD07C
:10035000C3F30A54C1F30A552C44A4F2F3340194B4
:10036000A0FB0254C1F3130141F48011C3F3130342
:1003700043F4801301FB024400FB034E840A970AF6
:1003800044EA815447EA8357A4FB076802958D0A23
:1003900005FB07854FEA932C04FB0C542705029DAF
:1003A0004FEA065847EA1637B5EB08056EEB070C1F
:1003B000870E920E47EA811742EA8312A7FB0201D9
:1003C000B6EB0B0164EB00042B0D43EA0C335E1813
:1003D00044EB1C50DA465146E7FB0201C5F3130417
:1003E0004FEA0B3343EA14534FEA0432019C43EAC9
:1003F0000603A4F10C040294009CCDE900B400F0C3
:100400005FF803B0BDE8F08F00200146F9E700F087
:10041000004230F000400AD0C10D01F56071C0F318
:10042000160042EA0151C2084007114370470020FC
:100430000146704730B5041E71F1000404DB4FF033
:100440000044404264EB0101141E73F1000405DB1B
:100450001C464FF00043524263EB0403994208BF2D
:10046000904230BD202A04DB203A00FA02F100203D
:1004700070479140C2F1200320FA03F319439040E2
:100480007047202A04DB203A21FA02F0002170474D
:1004900021FA02F3D040C2F12002914008431946EC
:1004A000704710B5141E73F1000408DA401C41F1C6
:1004B000000192185B411A4301D120F0010010BDE8
:1004C0002DE9F04D92469B4611B1B1FA81F202E05E
:1004D000B0FA80F220329046FFF7C4FF04460F4680
:1004E00040EA0A0041EA0B0153465A46084313D03A
:1004F000114653EA010019D0C8F140025046FFF7F7
:10050000C0FF05460E46504659464246FFF7AAFF31
:10051000084305D0012004E020463946BDE8F08DAF
:100520000020054346EAE0762C4337430A986305EA
:10053000E40AA0EB08000022FD0A44EA47540A300E
:1005400002D500200146E9E7010510196941DDE9FE
:10055000084500196941BDE8F04DA2E7064C074D7A
:1005600006E0E06840F0010394E807009847103483
:10057000AC42F6D3FFF70CFE9C8A0008BC8A000848
:1005800010B50146806B026C12F0500F05D0026C62
:10059000D20626D500F038FE10BD016C41F4007182
:1005A000016401688A6812F0405F17D1027EAAB91F
:1005B000CA6A12F4700F02D08A6852050ED44A68D3
:1005C00022F020024A60016C21F480710164016C08
:1005D000C90403D4016C41F00101016400F012FE72
:1005E00010BD806BC26CBDE810400846104710B5C6
:1005F000806B40210164416C41F00401416400F0D2
:1006000003FE10BD10B5806B00F0FDFD10BD0000B5
:10061000464910B54A6822F440324A604A68436845
:100620001A434A6001684A6822F480724A6001688D
:100630004A68036942EA03224A6001684A6822F074
:1006400040724A6001684A6883681A434A600168D8
:100650008A6822F400628A6001688A68C3681A4363
:100660008A60816A6FF07062D14201688A6822F004
:1006700070628A6001688A680CD0836A1A438A6053
:1006800001688A6822F040528A6001688A68C36AF9
:100690001A4301E022F040528A6001688A6822F021
:1006A00002028A6001688A68037E42EA43028A6025
:1006B00090F82010002901684A680FD042F40062C7
:1006C0004A6001684A6822F460424A6001684A68E8
:1006D000174C436A04EB43331A4301E022F40062EF
:1006E0004A600168CA6A22F47002CA620168CA6A72
:1006F000838B104C04EB03531A43CA6201688A6867
:1007000022F400728A6001688A6890F8303042EA08
:1007100043228A6001688A6822F480628A600168E4
:100720008A68406942EA8020886010BD0023014049
:1007300000E0FFFF0000F0FF07F00AFC04F000FCFF
:100740009FED080A084800F013F807F021FC4FF469
:10075000FA74204607F098F80449034806F056FB5F
:10076000F7E700009A99993E040400205000002009
:1007700000210180418080ED010A9FED040A80ED97
:10078000020A80ED030A01747047000000000000B7
:10079000FEE70000014800F06EBF0000000D0020E1
:1007A000044840F20161016000218160C1600821BC
:1007B00001617047440D0020014800F05CBF00005B
:1007C000000D00202DE9F0410446807A0D460026F8
:1007D000002848D1207A012768B1207A002842D029
:1007E0002672287F01284FD0022857D004286BD0CA
:1007F000082860D172E02772287F012814D00228CF
:1008000021D0042831D008282DD10C21284602F00F
:100810007DFF20802868016A21F420410162286858
:10082000016A41F400511CE00021284602F06EFFED
:1008300020802868016A21F00A0101622868016AA3
:1008400041F002010DE00421284602F05FFF208004
:100850002868016A21F0A00101622868016A41F05C
:10086000200101626672BDE8F0810821284602F08D
:100870004DFF20802868016A21F420610162286808
:10088000016A41F40071ECE70021284602F03EFFC6
:1008900060802868016A21F00A0108E004212846E6
:1008A00002F034FF60802868016A21F0A001016233
:1008B0002868016A01626088617A00EB0140218842
:1008C000401A6060A772CEE70821284602F01EFF9A
:1008D00060802868016A21F42061E8E70C2128463D
:1008E00002F014FF60802868016A21F42041DEE7ED
:1008F000014801F053B90000840A0020014801F0CA
:100900004DB90000600B0020014801F047B900001C
:10091000400C0020014801F041B90000A00C00206B
:10092000014801F03BB900001C090020014801F01A
:1009300035B90000E00B0020014801F02FB900009C
:10094000DC060020014801F029B900003C07002026
:1009500001681823CAB2103AB2FBF3F2054B6FF3E9
:100960000901032A9B5CC36500D9091D81650846FE
:1009700070470000388A000810B5014600208B69D6
:100980008A6A4FF0C07453B1B3F5005F15D072B1ED
:10099000012A0CD0022A0AD0032A09D104E01AB194
:1009A000012A06D0022A03D1C96AC90100D5012053
:1009B00010BDC96AA142FAD010BD002AF7D0012AA1
:1009C000F2D0022AF3D0032AF3D010BD30B5046868
:1009D000256825F480252560046863608368402BC2
:1009E000036803D099600068C26030BD9A600068F7
:1009F000C16030BD2DE9F04764228281CB78FE26AC
:100A00004FF0000CEF254FF001094FF00808FD4FA3
:100A1000FD4C052B7ED07EDCFC4A012B7CD0022BCA
:100A20007BD0032B7AD0042B79D1267065702520DA
:100A3000A0700420E07097ED0A0A82ED000AD078D9
:100A40002071907860715078A0711078E07197ED06
:100A50000B0A82ED000AD07820729078607250788C
:100A6000A0721078E07297ED0C0A82ED000AD0783F
:100A70002073907860735078A0731078E07397EDCE
:100A8000000A82ED000AD078207490786074507863
:100A9000A0741078E07497ED010A82ED000AD07816
:100AA0002075907860755078A0751078E07597ED96
:100AB000020A82ED000AD07820769078607650782D
:100AC000A0761078E07697ED030A82ED000AD078E0
:100AD0002077907860775078A0771078E07797ED5E
:100AE000040A82ED000AD07884F82000907884F817
:100AF0002100507884F82200107884F8230097EDC4
:100B0000050A82ED000AD07884F82400907884F8F1
:100B1000250005E0E1E00EE02FE06EE0A9E08DE0C9
:100B2000507884F82600107884F82700A0780021F7
:100B3000C01CC0B2CBE00620062B7DD00A2B7CD097
:100B4000FF2B7BD126706570A070FF20E070202005
:100B5000207101F093FA000E607101F08FFA000C21
:100B6000A07101F08BFA000AE07101F087FA20729F
:100B7000A0780021C01CC0B235E10023CF18C3F11A
:100B8000030C5B1C3F79DBB202F80C70042BF5D32D
:100B900092ED000A002380ED000ACF18C3F1030C88
:100BA0005B1C3F7ADBB202F80C70042BF5D392ED9C
:100BB000000A002380ED010ACF18C3F1030C5B1C6F
:100BC0003F7BDBB202F80C70042BF5D392ED000AE8
:100BD00080ED020A2670657084F8029084F8039014
:100BE000A0780021C01CC0B202E0225C114489B28E
:100BF000401EC0B2F9D22171F9E0267065700D2057
:100C0000A0700220E070824890ED000A82ED000A98
:100C1000D1782171917861715178A1711178E17168
:100C200090ED010A82ED000AD1782172917861720B
:100C30005178A172117802E079E0A7E0DFE0E1727B
:100C400090ED020A82ED000AD078207390786073EC
:100C50005078A0731078E073A0780021C01CC0B257
:100C600002E0225C114489B2401EC0B2F9D2217464
:100C7000BDE02670657084F802800320E07065494D
:100C800091ED020ADFED640A20EE200ABDEEC00AF3
:100C900010EE100A020A2271607184F806C084F80E
:100CA00007C084F808C084F809C0087CA072A07846
:100CB0000021C01CC0B202E0225C114489B2401E77
:100CC000C0B2F9D2E17292E0225C114489B2401EB6
:100CD000C0B2F9D284F8281089E02670657084F8D3
:100CE00002800520E0704D480078207184F805C02E
:100CF00084F806C097ED0D0AF2EE040A20EE200AF1
:100D0000BDEEC00A10EE100A010AE171207284F8EB
:100D100009C084F80AC0A0780021C01CC0B202E05B
:100D2000225C114489B2401EC0B2F9D2CAE72670D3
:100D300065700C21A170E0703948418F11B184F8C1
:100D4000049001E084F804C010F82F1F617141780D
:100D5000A1718178E171C178217201796172417963
:100D6000A1728179E172C1792173017A6173407A4C
:100D7000A073A0780021C01CC0B202E0225C114424
:100D800089B2401EC0B2F9D2E17330E026706570BE
:100D90000920A0700A20E07000202071607184F8A2
:100DA00006C097ED0D0ABDEEC00A10EE100A001243
:100DB000E07197ED0D0ABDEEC00A10EE100A207228
:100DC00084F809C084F80AC0A0780021C01CC0B211
:100DD00002E0225C114489B2401EC0B2F9D271E730
:100DE000225C114489B2401EC0B2F9D26172A2786D
:100DF000BDE8F04704490B48121D02F061BFBDE891
:100E0000F08700000C050020E009002024000020ED
:100E1000F0040020040400200000C8422800002044
:100E200018040020DC080020704700210160C18008
:100E30008180704700B5034611FB02F001B20846FD
:100E400005F0F4FB0246B3F9040005F0EFFB824223
:100E500025D0B3F90400002901DB0A4600E04A422C
:100E6000002800DA4042104480B24FF6FF72121A96
:100E7000904206D2B3F904208A4200DB4042D88077
:100E800006E0B3F90400884201DA5042F7E7DA805D
:100E900099801868B3F906100844186000BD988856
:100EA000081AECE700EE900A6049B8EE601AC0EE4E
:100EB000010AB2EE040A10EE900A88420ADB9FEDA6
:100EC0005C1A70EEC10ADFED5B1A80EEA11ADFED4D
:100ED0005A0A8DE010EE900A584988420DDB9FEDCA
:100EE000581A70EEC10ADFED571A80EEA11ADFED35
:100EF000560A7DE0BCEEE00A8EE010EE900A5349FF
:100F00009FED531A884208DBDFED521A70EEE10ABA
:100F1000C0EE811ADFED500A58E010EE900A4F49FA
:100F2000DFED4F1A884208DB9FED4E1A70EEC10AC2
:100F300080EEA11ADFED4C0A5AE010EE900A4B4900
:100F4000884208DB9FED4A1A70EEC10A80EEA11AB2
:100F5000DFED480A4CE010EE900A4749DFED471AF2
:100F6000884208DB9FED461A70EEC10A80EEA11A96
:100F7000DFED440A3CE010EE900A434988420ADB68
:100F80009FED421A70EEC10ADFED411A80EEA11A00
:100F9000F3EE0E0A2CE010EE900A3E49884208DB80
:100FA0009FED3D1A70EEC10A80EEA11AF3EE040A1D
:100FB0001EE010EE900A394988420ADBDFED381A4C
:100FC00070EEE10AC0EE811AF0EE400A41EE800AAE
:100FD00090E710EE900A334988420CDB9FED321AFD
:100FE000DFED321A70EEC10A80EEA11AF1EE040AAA
:100FF00041EE000A7EE710EE900A2D49884212DB8E
:10100000B0EE081ADFED2B1A30EEC11AC1EE210A3C
:1010100020EE800ABCEEC00A10EE100AC0B26428AE
:1010200000D96420704700207047000085EB8140A4
:1010300085EB8140295C0F3E0000B44252B87E40EF
:1010400052B87E400AD7A33D0000A04248E17A4052
:101050008FC2753D48E17A4000008C4214AE774063
:10106000CDCC4C3D14AE774000007042E17A744024
:10107000E17A7440000048425C8F72408FC2F53CB8
:101080005C8F724000002042AE477140AE47714015
:101090000AD7A33C295C6F40295C6F401F856B40D9
:1010A0001F856B40CDCC5C40CDCC5C401F856B3E3A
:1010B000000040406666E63E78B50024009490F853
:1010C0003C20012A19D0012280F83C200A6807251B
:1010D0000368092A13D9DE680A3A02EB42029540F6
:1010E000AE43DE600A788B680A3A02EB4202934014
:1010F0000268D5682B43D36010E0022078BD1E69DA
:1011000002EB42029540AE431E610A788B6802EB07
:1011100042029340026815692B4313614A681F25F8
:10112000072A13D203685E6B521E02EB82029540BF
:10113000AE435E630A8893B20A79521E02EB8202C2
:1011400093400268556B2B43536327E003680D2AD5
:1011500012D21E6BD21F02EB82029540AE431E6379
:101160000A8893B20A79D21F02EB82029340026886
:10117000156B2B43136311E0DE6A0D3A02EB82021A
:101180009540AE43DE620A8893B20A790D3A02EBCB
:10119000820293400268D56A2B43D362164B0568DE
:1011A000144A9D4206D10D68122D03D1556845F4AD
:1011B0008005556005689D4218D10B68102B01D041
:1011C000112B13D1536843F40003536009681029AD
:1011D0000CD10A490A4A0968B1FBF2F101EB81011D
:1011E000490000E0491E00910029FBD180F83C40F5
:1011F000002078BD0023014000200140880000202D
:1012000040420F0070477047704770B504004FF0C0
:10121000000603D0206C002510B107E0012070BD4E
:10122000204600F01DF8656484F83C50206CC00630
:1012300010D4206C20F4885040F002002064204636
:10124000FFF7E6F96564206C20F0020040F0010031
:10125000206400E0012684F83C50304670BD000058
:1012600070B586B0064614216846FFF753F820494A
:101270003068884239D11F480025016841F48071E7
:10128000016000681B4C00F48070143C05902068DD
:1012900040F0020020602068694600F002000590DE
:1012A000012000900320CDE90105134800F0FAFD6C
:1012B000206840F4800020602068114C00F4800019
:1012C00005900E48C4E900050015A560C4E9035067
:1012D000400060618000A0614011C4E9070520461C
:1012E000656200F02BFDB463A66306B070BD00001C
:1012F0000020014044380240000402407064024073
:1013000024060020F8B500230446009390F83C0022
:10131000012807D0012084F83C0020688568ED078B
:1013200002D011E00220F8BD856845F00105856016
:101330003848394D0068B0FBF5F000EB400000E0A4
:10134000401E00900028FBD120688568ED075ED024
:10135000256C40F20166B54345F48075256440680C
:10136000400505D5206C20F4005040F480502064E6
:10137000206CC00404D5606C20F00600606400E0BE
:10138000636484F83C30A36B2548244DD863A36B79
:1013900024481864A36B2448D86423686FF02200A3
:1013A00018602068436843F0806343602068836866
:1013B00043F480738360134620680A46A66B00F1ED
:1013C0004C01304600F024FD68681849C0062068CA
:1013D00006D088421BD1816811F0405F13D016E01F
:1013E0008842F8D0124A904203D1D1F80423D206A1
:1013F000F1D0104A90420AD1D1F8041301F01F0134
:101400001029E8D303E0816841F080418160002029
:10141000F8BD00008800002040420F00002301407A
:101420008105000805060008EF05000800200140BE
:10143000002101400022014090F82020012A07D01D
:10144000022A05D0416A41F480214162012070479F
:10145000006842690A4342610020704710B590F865
:101460002020012A07D0022A05D0416A41F48021B8
:101470004162012010BD3B48D0F8002242F0010239
:10148000C0F80022D0F8002222F47C52C0F80022DA
:10149000D0F800224B6A42EA0322C0F800220A7DFB
:1014A00002F01F0301229A40D0F81C329343C0F887
:1014B0001C32CB69B3B9D0F80C329343C0F80C326C
:1014C0008C894B6864F31F434C6900EBC404C4F877
:1014D00040320C890B6864F31F434C6900EBC40471
:1014E000C4F84432CB69012B16D1D0F80C32134327
:1014F000C0F80C320C884B6864F31F434C6900EB56
:10150000C404C4F840320C89CB6864F31F434C69AF
:1015100000EBC404C4F844328B69002BD0F80432C9
:101520000ED01343C0F804320B69002BD0F81432EC
:1015300008D01343C0F81432096A012904D008E026
:101540009343EFE79343F5E7D0F81C121143C0F83B
:101550001C12D0F8001221F00101C0F80012002086
:1015600010BD000000640040704730B590F8204086
:10157000012C05D0022C03D0416A41F480215DE0AA
:101580000468002955D02469A40754D04FF4D874B6
:10159000056804EB01142D5915F0040595600568E4
:1015A0002D594ED0ED08556005682C5904F0020401
:1015B000D4604FF4DA74056804EB01142D5905F07A
:1015C0000F05156105682D59C5F307259561056857
:1015D0002C59240C54614FF4DC72046802EB0112A4
:1015E000A4581C700468A458240A5C700468A458A9
:1015F000240C9C700468A258120EDA704FF4DE724C
:10160000046802EB0112A4581C710468A458240A4F
:101610005C710468A458240C9C710468A258120ED2
:10162000DA71006881B1016941F020010161002097
:1016300030BDE468A8E7416A41F40011416201202D
:1016400030BD6D0D1560AFE7C16841F02001C1608C
:10165000EDE7014690F82000012801D0022804D1CE
:1016600009684A68920701D504207047096889070C
:10167000FBD5032070472DE9F05F05460068002484
:101680004669D0F804908768D0F80CB0D0F810A064
:10169000D0F81880F10748D0F90714D001218160F3
:1016A000B80703D5284600F01AFA0CE0780702D5EF
:1016B0004FF4006407E0380702D54FF4805402E08D
:1016C000284600F00BFAF80516D529684FF480700B
:1016D0008860B80503D5284600F003FA0CE07805C9
:1016E00002D544F4005407E0380502D544F48044A0
:1016F00002E0284600F0F4F9F80316D529684FF403
:1017000080308860B80303D5284600F0ECF90CE07F
:10171000780302D544F4004407E0380302D544F4CA
:10172000803402E0284600F0DDF9300707D55FEA93
:10173000CB6004D52968102044F40074C860700799
:101740004FF0080707D55FEA0B7004D52868C7601B
:10175000284600F069F9B00706D52868C0688007F8
:1017600002D0284600F062F9700607D55FEACA6029
:1017700004D52968102044F480640861B00607D5B8
:101780005FEA0A7004D528680761284600F06EF900
:10179000F00606D528680069800702D0284600F0C8
:1017A00067F9B00308D55FEAC96005D5296810203C
:1017B0004860284600F066F9F00307D55FEA097033
:1017C00004D528684760284600F08EF9300446D5D5
:1017D0005FEA497040D5F00504D55FEAC87001D0D2
:1017E00044F00104B00504D55FEA887001D544F0E7
:1017F0000204700504D55FEA487001D544F0040482
:10180000300529D518F0700F26D008F07000402858
:1018100015D006DC102809D020280AD0302816D18F
:101820000AE050280ED0602811D10EE044F00804E0
:101830000DE044F010040AE044F0200407E044F016
:10184000400404E044F0800401E044F4807428681B
:10185000816921F070018161296804204860002CB1
:1018600005D0686A204368622846FFF77DFEBDE820
:10187000F09F70B5040003D094F8200010B104E08C
:10188000012070BD204600F081F82068016821F039
:101890000201016000F0ECFB0546052604E000F0C3
:1018A000E7FB401B0A2811D8206840688007F6D45F
:1018B0002068016841F00101016000F0D9FB054694
:1018C0000BE000F0D5FB401B0A2806D9606A40F403
:1018D0000030606284F82060D2E720684068C0076A
:1018E000EFD0207E0128206801683DD021F08001E2
:1018F0000160607E01282068016838D021F0400135
:101900000160A07E01282068016833D021F0200109
:101910000160E07E0128206801682ED041F01001AE
:101920000160207F01282068016829D021F008018A
:101930000160607F01282068016824D021F0040143
:101940000160D4E902010843D4E9041211430843B9
:101950006168491E08432168C86100206062012057
:1019600084F82000002070BD41F08001C0E741F004
:101970004001C5E741F02001CAE721F01001CFE79F
:1019800041F00801D4E741F00401D9E710B586B071
:10199000044614216846FEF7BDFC204920688842B1
:1019A00039D11F480021026842F0007202600068CD
:1019B00000F0007005901A481038026842F00202E8
:1019C0000260006800F0020005904FF44070009043
:1019D0000220CDE90101032003900920049069460B
:1019E000104800F05FFA00220121132000F0D2FB22
:1019F000132000F0C1FB00220121142000F0CAFBDB
:101A0000142000F0B9FB00220121152000F0C2FBD8
:101A1000152000F0B1FB06B010BD000000640040CE
:101A200040380240000402407047000010B50446F0
:101A300000680B49884211D12046FFF70AFE0028B2
:101A40000CD0084B084A00212046FFF78EFD0648BF
:101A50000221BDE810402838FFF7EEBC10BD0000A1
:101A6000006400405C000020280D0020704700004A
:101A7000034A0168914201D1FFF7EBBD70470000B6
:101A800000640040704770B5044690F820000128BB
:101A900004D0606A40F40020606217E0022084F8FD
:101AA00020002068016821F00101016000F0E0FAE7
:101AB00005460DE000F0DCFA401B0A2808D9606AF0
:101AC00040F400306062052084F82000012070BDE1
:101AD00020684068C007EDD1606270BD70477047F4
:101AE000704770477047704770472DE9F0410446D2
:101AF000876D00F0BDFA054694F8350000260228EF
:101B000006D08020606584F834600120BDE8F08153
:101B10002068016821F0160101602068416921F008
:101B200080014161206C08B9A06C20B12068016877
:101B300021F0080101602068016821F001010160C5
:101B40000BE000F095FA401B052806D920206065BF
:101B500004F8346F03206070D8E720680068C0077D
:101B6000EFD194F85C103F208840B86004F8346FDF
:101B7000012060700020C9E790F83510022903D0D9
:101B80008021416501207047052180F835100068EB
:101B9000016821F001010160002070472DE9F84340
:101BA00004464FF00009CDF8009063484FF41651F9
:101BB000A56D0068B0FBF1F72E6894F85C20082151
:101BC00001FA02F030420FD02068026852070BD5AC
:101BD000026822F00402026094F85C008140A9606F
:101BE000606D40F00100606594F85C104FF00108F2
:101BF00008FA01F0304208D021684969090604D585
:101C0000A860606D40F00200606594F85C100420EC
:101C10008840304208D021680968890704D5A86047
:101C2000606D40F00400606594F85C1010208840FE
:101C3000304218D021680968090714D5A8602068C7
:101C40000168490304D50068000308D5A16C07E0CA
:101C50000168C90503D4016821F008010160216C05
:101C600009B12046884794F85C1020208840304213
:101C700031D021680968C9062DD5A86094F83500CF
:101C800005282068016806D0490347D5006800038D
:101C90001DD4616C1CE021F01601016020684169CF
:101CA00021F080014161206C08B9A06C20B120684E
:101CB000016821F00801016094F85C103F20884021
:101CC000A86084F8349084F83580216D1FE0E16BC2
:101CD00009B120468847606D00282BD0606DC00791
:101CE00014D0052084F835002068016821F0010136
:101CF00001600098401C0090B84203D8206800683A
:101D0000C007F6D184F8349084F83580E16C00295E
:101D100010D001B02046BDE8F04308470168C9056E
:101D2000D5D4016821F01001016084F8349084F862
:101D30003580CCE7BDE8F883880000202DE9F0412C
:101D4000044600F095F905465CB1002684F834603D
:101D5000022084F835002068016821F0010101604B
:101D60000DE00120BDE8F08100F082F9401B05285C
:101D700005D920206065032084F83500F2E720684B
:101D80000068C007F0D121680A6820480240D4E901
:101D900001031843D4E903352B43184363691843FF
:101DA000A3691843E3691843236A18431043626A1E
:101DB000042A03D1D4E90B231A4310430860206896
:101DC0004069656A20F0070128460D430127042871
:101DD0000CD1A06A0543E06A40B12046FEF7CCFD75
:101DE00020B14020606584F83570BAE7206845610D
:101DF0002046FEF7ADFD94F85C203F2191408160C4
:101E0000666584F835700020ACE700003F8010F074
:101E10002DE9F0410446866D90F834000025012834
:101E20000DD0012084F8340094F835700020012F83
:101E300007D084F8340002252846BDE8F08102204E
:101E4000FBE7022784F8357060652046FEF7BEFD8B
:101E500094F85C103F208840B0602068016841F031
:101E600016010160206C20B12068016841F0080172
:101E700001602068016841F001010160DCE70000B9
:101E800070B5044600F0F4F80546601C02D0044822
:101E90000078044400F0ECF8401BA042FAD370BD77
:101EA0007C0000202DE9F84FDFF880B100224FF0D0
:101EB00003094FF00F0A0BF1040E01250B68954042
:101EC0002B40AB4272D14C68012C05D0022C03D0C0
:101ED000112C01D0122C10D18668540009FA04F795
:101EE000BE43CF68A7403743876046680C79AE434E
:101EF000C4F30014944034434460C468570009FAA2
:101F000007F58E68AC43BE402643C6604C68022C81
:101F100001D0122C12D1D40800EB840CDCF8206024
:101F20005407E40E0AFA04F826EA0806D1F81080ED
:101F300008FA04F848EA0608CCF820800468AC43A4
:101F40000D7905F00305BD40254305604C68E400AC
:101F500065D5374C256845F480452560246822F016
:101F6000030504F480440094324C2E19D6F8087806
:101F70009407250F0AFA05F4A7432F4CA04201D17C
:101F8000002424E02D4CA04201D101241FE02C4C60
:101F9000A04201D102241AE02A4CA04201D103241C
:101FA00015E0294CA04202D1042410E037E0274C70
:101FB000A04201D105240AE0254CA04201D106240B
:101FC00005E0244CA04201D1072400E00824AC40E5
:101FD0003C43C6F80848DBF800405D464E689C4329
:101FE000F60300D51C432C60DEF8004075464E68B1
:101FF0009C43B60300D51C432C600C4D08352C685F
:102000004E689C43F60200D51C432C60074D0C35EE
:102010002C684E689C43B60200D51C432C60521CB1
:10202000102AFFF44AAFBDE8F88F0000003C0140E1
:1020300044380240003001400000024000040240E9
:1020400000080240000C0240001002400014024050
:1020500000180240001C0240426931EA020200D12D
:102060000904816170470AB1816170470904FBE787
:1020700001488068704700007C000020014800682B
:1020800070470000107AFF1F0248816802781144EF
:10209000816070477C0000200B4810B5016841F456
:1020A00000710160016841F480610160016841F4E0
:1020B00080710160032000F08DF8002000F006F828
:1020C00000F03EF8002010BD003C024010B5014673
:1020D00088B00022372000F05DF8372000F04CF87F
:1020E00013480024016841F020010160006805A93F
:1020F00000F020000690684600F018F900F036F96C
:102100000C494000B0FBF1F10C480B4A491E02603B
:1021100040F2E732C0E90324C0E9011400F06AFE8E
:1021200010B1012008B010BD044800F07FFEF9E7AF
:102130004038024040420F00001400407C03002061
:102140000C4882B0016841F480410160006800F4ED
:10215000804000900748001F016841F080510160F5
:102160000068002200F0805000900F21901E02B005
:1021700000F010B844380240002809DB00F01F02CC
:10218000012191404009800000F1E020C0F80011D9
:1021900070470000F0B40E4B1B68C3F30223C3F179
:1021A0000704042C00D904241D1D072D01D200238F
:1021B00000E0DB1E012606FA04F56D1E0D409D4071
:1021C0009E40761E164045EA0601F0BC05F015B9A2
:1021D0000CED00E0064A00F0070110684FF6FF031F
:1021E000184040EA0120034908431060704700008E
:1021F0000CED00E00000FA052DE9F0470D46040063
:1022000065D0DFF81491D9F80000EFB200F00F00AC
:10221000A84207D289F80070D9F8000000F00F003A
:10222000A84254D120683D4E810712D5400703D5FE
:10223000306840F4E05030602078000703D5306803
:1022400040F4604030603068A16820F0F00008433E
:1022500030602078C0072DD03049606808390128E7
:1022600012D0022813D0032811D009688907002949
:102270002DDA316821F0030101433160FFF7F8FEE8
:10228000804641F2883A0EE009688903EFE7096861
:102290008901ECE7FFF7ECFEA0EB0801514502D9FC
:1022A0000320BDE8F0873068616800F00C00B0EBF7
:1022B000810FEFD1D9F80010484601F00F01A94273
:1022C00007D90770006800F00F00A84201D0012074
:1022D000E7E72078400705D53068E16820F4E05052
:1022E000084330602078000706D53068216920F463
:1022F000604040EAC100306000F058F83168084A98
:10230000C1F30311515CC8400649086006480068E3
:10231000FFF7DCFE0020C4E7003C02400838024022
:10232000408A000888000020800000200F22026000
:102330000C4A136803F003034360136803F0F003CF
:102340008360136803F4E053C36012684FF4E053F2
:1023500003EAD20202610448006800F00F0008603E
:102360007047000008380240003C0240044805491C
:1023700000680968044AC1F38221515CC840704773
:102380008800002008380240508A000804480549A7
:1023900000680968044AC1F34231515CC840704783
:1023A0008800002008380240508A0008154810B5FF
:1023B000006810F00C01144813D0431004290FD00A
:1023C00008290ED10F4C241F216801F03F0221681B
:1023D000490207D52068C0F38810A0FB030106E07E
:1023E000184610BD2168C1F38811A1FB000100232C
:1023F000FDF746FF2168C1F30141491C4900B0FBCC
:10240000F1F010BD083802400024F4002DE9F84F27
:10241000040075D02078DFF828A3C007AAF10405CE
:1024200048D00AF104000168C1F38101012908D0F4
:102430000068C0F3810002280AD1DAF800004002E7
:1024400006D52868800335D560680028E1D031E0E2
:102450006068B0F5803F10D0B0F5A02F286810D08C
:1024600020F480302860286820F48020286060688C
:10247000A0B1FFF7FDFD06460CE0286840F480306F
:10248000F4E740F480202860F7E7FFF7F1FD801BB8
:10249000642871D828688003F7D50BE0FFF7E8FDC2
:1024A000064604E0FFF7E4FD801B6428F1D82868A5
:1024B0008003F7D42078DFF88C9280074FF0000B70
:1024C0003DD59F48001D016811F00C0F08D0006831
:1024D000C0F3810002280AD1DAF80000400206D4D5
:1024E0002868800715D5E068012809D111E0E06867
:1024F000B8B10121C9F80010FFF7BAFD064605E0A2
:102500001AE1FFF7B5FD801B0228C2D828688007B2
:10251000F7D52868216920F0F80040EAC10028605A
:102520000DE0C9F800B0FFF7A3FD064604E0FFF791
:102530009FFD801B02281FD828688007F7D42078C9
:10254000000722D57E4F80486169703771B1012143
:102550000160FFF78DFD064604E0FFF789FD801B53
:10256000022809D838688007F7D50EE0C0F800B017
:10257000FFF77EFD064605E082E0FFF779FD801B50
:1025800002287DD838688007F7D42078400765D5C1
:102590006B484FF000083C300068C0000BD468481E
:1025A0003C30016841F08051016000684FF0010843
:1025B00000F080500090654F3868C0050FD438682F
:1025C00040F480703860FFF753FD064604E0FFF7E3
:1025D0004FFD801B022853D83868C005F7D5584FE7
:1025E000A0686C3701280FD00528386810D020F07B
:1025F00001003860386820F004003860A068B0B18D
:10260000FFF736FD06460EE0386840F00100F4E7BB
:1026100040F004003860F7E7FFF72AFD811B41F224
:102620008830814263D838688007F5D50DE0FFF720
:102630001FFD064606E0FFF71BFD811B41F28830B7
:10264000814254D838688007F5D4B8F1000F05D01E
:102650003B483C30016821F080510160A069B8B36B
:102660003749091D0968C1F38101022946D00228B2
:10267000584606D0C9F86000FFF7FAFC044639E076
:1026800035E04F46C9F86000FFF7F2FC064604E06B
:10269000FFF7EEFC801B022829D828688001F7D4B8
:1026A000D4E907010843A16A294A490802EB01411C
:1026B000626A41EA8211084394F82C1040EA0161F1
:1026C000CAF8001001203866FFF7D2FC044605E086
:1026D00034E0FFF7CDFC001B022808D828688001F1
:1026E000F7D52BE0FFF7C4FC001B022802D903201A
:1026F000BDE8F88F28688001F4D41FE00128F7D0E6
:10270000DAF80000E26900F48001914214D1226AF3
:1027100000F03F0191420FD147F6C071626A01405B
:10272000914209D1A26A00F44031914204D1E16A98
:1027300000F07060884201D00120D9E70020D7E77F
:102740000438024000004742800E474200700040BB
:102750000000FFFF704790F85100704738B50168DE
:1027600004464A688868C043430606D5C30704D1B7
:10277000D3435B0601D4216C05E0830708D4D3431F
:102780001B0605D4616C01B02046BDE83040084707
:10279000830603D5430601D5C30551D4D3439B0615
:1027A0004ED443060AD494F85130032B49D0636DBC
:1027B00043F004036365CB688B680093830609D4F8
:1027C000636D43F0010363658B6800930B6823F02E
:1027D00040030B60C00506D4606D40F008006065E2
:1027E000206880680090606D002829D020684168CA
:1027F00021F0E0014160012084F85100900701D4EC
:10280000D00722D02068416821F003014160114DBA
:10281000E06C40B10565E06CFFF7AEF918B1606D92
:1028200040F040006065A06C002809D00565A06CF0
:10283000FFF7A2F9002803D0606D40F0400060650A
:1028400038BDC8688868009038BD2046FFF782FF11
:1028500038BD00004D63000870B5040005D00025A8
:10286000A56294F8510010B106E0012070BD84F813
:102870005050204600F030F8022084F851002068C3
:10288000016821F040010160D4E901010843D4E965
:1028900003121143084361690843218B01F400715D
:1028A0000843E1690843216A0843A16A0843216893
:1028B0000860A069042101EA1040616A08432168A8
:1028C00048602068C16921F40061C161656501202B
:1028D00084F85100002070BD2DE9F04387B0064612
:1028E00014216846FDF716FD3849306888426AD1E0
:1028F00037480024016841F4805101600068344D7C
:1029000000F48050143D0590286840F001002860D4
:102910002868694600F001000590E0200090022040
:10292000CDE9010403200390052004902948FFF716
:10293000B9FA286840F4800028602868274D00F420
:1029400080000590244828604FF0C067C5E90174F5
:102950004FF48068C5E903486C614FF44039AC61BD
:10296000C5E9074928466C62FFF7E8F9F564AE63EC
:1029700019481B4D4830E5E802074020A5E8110141
:10298000174845F81449AC61C5E907496C62FFF77F
:10299000D5F9B564002201213820AE63FFF7FAFBB8
:1029A0003820FFF7E9FB002201213B20FFF7F2FB73
:1029B0003B20FFF7E1FB002201212320FFF7EAFB88
:1029C0002320FFF7D9FB07B0BDE8F08300300140BA
:1029D000443802400000024010640240DC0600203F
:1029E0003C07002032220221014801F092BD000084
:1029F000C803002070472DE9F84F044690F85000B6
:102A000001250A9E1F4692468B464FF0000801287A
:102A10000ED0012084F85000FFF72AFB814694F87D
:102A20005100616801280CD0B1F5827F07D102E026
:102A30000220BDE8F88FA16809B9042801D002205E
:102A4000B6E0BBF1000F27D0BAF1000F24D01FB3BE
:102A500094F85100042802D0052084F85100002089
:102A60006065C4F838A0E787A787C4F830B0E78668
:102A7000A7862064606420680168490603D4016861
:102A800041F040010160E068B0F5006F606805D07A
:102A9000E8B3012F43D079E0012089E008B1012F8C
:102AA00034D1206B21680088C860206B801C2063B3
:102AB000E08E401EE08629E02068816889070DD5F8
:102AC000E18E59B1012D09D1216B0988C160206BBC
:102AD000801C2063E08E401EE0860025206881680F
:102AE000C9070BD0E18F49B1C068A16B0880A06B0A
:102AF000801CA063E08F401EE0870125FFF7B8FA35
:102B0000A0EB0900B04201D3701C50D100E006E0F8
:102B1000E08E0028D0D1E08F0028CDD13CE0206BA2
:102B2000216800780873206B401C2063E08E401EF3
:102B3000E0862BE02068816889070DD5E18E59B1C8
:102B4000012D09D1216B09780173206B401C206392
:102B5000E08E401EE086002520688168C9070BD002
:102B6000E18F49B1C068A16B0870A06B401CA063E5
:102B7000E08F401EE0870125FFF77AFAA0EB0900FD
:102B8000B04202D3701C01D011E086B1E08E002863
:102B9000D0D1E08F0028CDD14A463146204603F0FF
:102BA00089FC38B120204FF00108606508E003205F
:102BB000804605E0A06818B92068C1688068009068
:102BC000012084F85100002084F85000404630E78E
:102BD0002DE9F041044690F85000002501280DD061
:102BE000012684F8506094F851000027D4F804C0FE
:102BF00001280FD0BCF5827F0AD102E00220BDE897
:102C0000F081D4F808C0BCF1000F01D1042801D034
:102C1000022560E049B342B33BB394F85100042865
:102C200002D0052084F8510067652163A386E386FE
:102C3000A263A387E3872764676494F8510004289C
:102C400015D0E16C264808642648E16CC863E16C45
:102C50002548C864E06C0765E38F2168A26B0C31DE
:102C6000E06CFFF7D5F8E0B906E0012533E0E16C50
:102C70001E4808641E48E8E72068416841F00101E9
:102C80004160A06C0764A06CC763A06CC764A06CB3
:102C90000765E38E2268216B0C32A06CFFF7B8F851
:102CA00038B1606D40F010006065012584F8516016
:102CB00011E020680168490603D4016841F0400131
:102CC00001602068416841F020014160206841684E
:102CD00041F00201416084F8507028468FE70000FF
:102CE00089630008FD6300085D6300087F630008D6
:102CF00093630008034A0168914201D1FFF72BBD9D
:102D0000704700000030014070477047704710B5B1
:102D100090F83C20012A22D0012280F83C20CA6889
:102D20008C6822F4407222434C6822F48062224371
:102D30000C6822F4006222430C6922F48052224380
:102D40004C6922F400522243C969002322F48042D4
:102D50000A4301684A6480F83C30002010BD02201C
:102D600010BD000070B590F83C20012A32D001253A
:102D700080F83C50022280F83D2002685368946835
:102D800023F070060B6833435360134B02689A427A
:102D900014D0B2F1804F11D0104B9A420ED0104B8C
:102DA0009A420BD00F4B9A4208D00F4B9A4205D053
:102DB0000E4B9A4202D00E4B9A4204D1496824F03D
:102DC00080031943916080F83D50002180F83C1049
:102DD000084670BD022070BD0000014000040040A4
:102DE00000080040000C0040000401400040014089
:102DF0000018004010B5040003D094F83D0010B155
:102E000007E0012010BD002084F83C00204600F0BF
:102E10000CF8022084F83D00211D206803F0A2FC7C
:102E2000012084F83D00002010BD70470168CA6889
:102E300042F00102CA600068816801F007010629BA
:102E400003D0016841F001010160002070472DE9C5
:102E5000F0410D46040003D094F83D0018B108E09D
:102E60000120BDE8F081002084F83C00204600F0FD
:102E70003BF8022084F83D002068816844F2070294
:102E800091438160211D206803F06CFC20688168FB
:102E90008269066A2B68AF690B4340F203318A43AB
:102EA00042EA0722A968EF6911434FF6FC429143B9
:102EB000EA6841EA07210A4329692F6A090141EAC0
:102EC000073111436A686D6926F0AA0646EA0515BE
:102ED0002A4383602068816120680262012084F8AF
:102EE0003D000020BDE700002DE9F04F04464F4DA6
:102EF0000068DFF834B100274C4E103D87B04FF02A
:102F000012094FF00308B0F1804F2ED1306840F025
:102F100001003060306800F001000590286840F042
:102F200001002860286800F001000590286840F042
:102F300002002860286802AA00F0020005904FF401
:102F40000040CDE900094FF0010A82E8800569469A
:102F50003748FEF7A7FF0820CDE9000902AA694615
:102F600082E880055846FEF79DFF324920684FF001
:102F7000020A884219D1306840F00200306030689F
:102F800000F002000590286840F0020028602868E0
:102F900002AA00F0020005903020CDE9000A82E884
:102FA000800369465846FEF77DFF23492068884222
:102FB00019D1306840F004003060306800F004003F
:102FC0000590286840F002002860286802AA00F0F6
:102FD00002000590C020CDE9000A82E8800369461E
:102FE0005846FEF75FFF15492068884219D13068BE
:102FF00040F008003060306800F008000590286854
:1030000040F0010028602868CDE9027800F0010056
:103010000590CDE9008A6946CDF810900448FEF786
:1030200041FF07B0BDE8F08F000402404038024085
:10303000000002400004004000080040000C004076
:1030400010B50446006889B1042904D0012200218A
:1030500003F0ECFB20680122042103F0E7FB206869
:10306000016841F001010160002010BD0122002132
:10307000F3E700000D4A0168914215D1017F012953
:1030800009D002290AD004290BD008290CD1014605
:103090000748FDF797BB01460648FAE70146064890
:1030A000F7E701460548F4E77047000000000140DB
:1030B000D0050020AC050020B8050020C405002084
:1030C0002DE9F041044690F83C000D4601283CD023
:1030D000012684F83C60022084F83D00A2B3042A53
:1030E00045D02068082A54D0D5E90027E968036A4A
:1030F00023F480530362D0F81CC0036A2CF4407C94
:103100004CEA07274FF6FF7C27F470470CEA0131A1
:1031100039434FF4204723F4204307EA02321A438D
:10312000C16102622068C16921F44061C161206807
:10313000C169AA6841EA0221C16184F83D600020AA
:1031400084F83C00BDE8F08101E00220FAE7D5E90F
:103150000012EB68206803F039FC2068816921F0D7
:103160000C01816120688169AA6811430FE0D5E9EB
:103170000012EB68206803F069FC2068816921F483
:103180004061816120688169AA6841EA0221816108
:10319000D3E7D5E9002C2F7B016A21F4807101620D
:1031A000C169036A21F0030141EA0C0121F0F00C2E
:1031B00039074FF420674CEA116123F4206307EAD2
:1031C00002221A43C16102622068C16921F00C0128
:1031D000C1612068C169AA681143ADE710B5040058
:1031E00003D094F83D0010B107E0012010BD00208D
:1031F00084F83C00204600F00DF8022084F83D00E1
:10320000211D206803F0AEFA012084F83D00002063
:1032100010BD000010B586B0044614216846FDF7C5
:1032200079F81B492068884230D11A48016841F07A
:1032300001010160006800F0010005901548143894
:10324000016841F0010101600068694600F0010079
:1032500005904FF4706000900220019002900320CE
:103260000390012004900C48FEF71CFE002201216F
:103270001920FEF78FFF1920FEF77EFF00220121A3
:103280001B20FEF787FF1B20FEF776FF06B010BD60
:1032900000000140443802400000024010B50268BE
:1032A000044631B1042908D008291AD00C2908D1C4
:1032B0001BE0D06840F0020002E0D06840F004005B
:1032C000D0600122206803F0B1FA2068816801F023
:1032D0000701062903D0016841F0010101600020C7
:1032E00010BDD06840F00800EAE7D06840F0100058
:1032F000E6E770B50446006801694FF00005C94370
:10330000890715D4C168C943890711D4E91E016131
:1033100001202077206880698007204602D0FFF7CF
:10332000A9FE04E000F098F8204600F069F925773E
:1033300020680169C943490717D4C168C9434907CF
:1033400013D46FF0040101610220207720688069A6
:1033500010F4407F204602D0FFF78CFE04E000F01E
:103360007BF8204600F04CF9257720680169C943B5
:10337000090716D4C168C943090712D46FF00801C0
:103380000161042020772068C0698007204602D0B0
:10339000FFF770FE04E000F05FF8204600F030F91F
:1033A000257720680169C943C90617D4C168C94394
:1033B000C90613D46FF0100101610820207720683E
:1033C000C06910F4407F204602D0FFF753FE04E0AE
:1033D00000F042F8204600F013F9257720680169D3
:1033E000C943C90708D1C168C943C90704D1891EA7
:1033F0000161204600F028F920680169C9430906E7
:1034000009D4C168C943090605D46FF08001016180
:103410002046FFF77AFC20680169C943490609D4B0
:10342000C168C943490605D46FF0400101612046D7
:1034300000F081F920680169C94389060BD4C1688D
:10344000C943890607D46FF0200101612046BDE819
:103450007040FFF75BBC70BD704770B5044690F8D4
:103460003C000D4601280DD0012684F83C60022066
:1034700084F83D0042B1042A18D0082A2AD00C2A28
:103480004DD139E0022070BD206803F0DDF92068DD
:10349000816941F0080181612068816921F004019E
:1034A0008161206881692A69114311E0206803F075
:1034B000FBF92068816941F40061816120688169BC
:1034C00021F480618161206881692A6941EA0221D1
:1034D000816124E0206803F01DFA2068C16941F091
:1034E0000801C1612068C16921F00401C16120683F
:1034F000C1692A69114311E0206803F03FFA20688E
:10350000C16941F40061C1612068C16921F4806131
:10351000C1612068C1692A6941EA0221C16184F858
:103520003D60002084F83C0070BD10B5040003D05D
:1035300094F83D0010B107E0012010BD002084F890
:103540003C00204600F00CF8022084F83D00211DCC
:10355000206803F007F9012084F83D00002010BD29
:1035600070B523490068214E0025214A14390224F0
:10357000032386B0B04219D1106840F002001060F9
:10358000106800F002000590086840F00400086030
:103590000868CDE9025300F0040005904FF4707004
:1035A000CDE900046946049312481BE0124EB04274
:1035B0001AD1106840F001001060106800F001009E
:1035C0000590086840F0010008600868694600F04E
:1035D000010005904FF470608DE831000120CDE9C5
:1035E00003300648FEF75EFC06B070BD00040140E3
:1035F0004438024000080240000001400000024040
:103600007047000010B504460068012203F00EF96F
:103610000B482168814202D00A48814203D1486C9C
:1036200040F4004048642068816801F007010629E1
:1036300003D0016841F001010160002010BD0000CD
:10364000000001400004014010B50446006825490F
:10365000884201D1FEF718FD23492068884210D125
:103660002249487A401C48722148417A491C4172DB
:103670002049487A401C48721F49487A401C4872C9
:1036800010BD1E49B0F1804F08D01D4A904211D1A3
:103690000068C00648880AD5401E09E00068C006D8
:1036A000088801D5401E00E0401C088010BD401C69
:1036B000488010BD134A904208D10068C00688882F
:1036C00001D5401E00E0401C888010BD0E4A90428B
:1036D000FBD10068C006C88801D5401E00E0401C30
:1036E000C88010BD0014004000000140AC0500205F
:1036F000B8050020C4050020D0050020640000208B
:103700000004004000080040000C00400246002079
:1037100041B1042909D008290AD00C2901D1106827
:10372000006C70471068406B70471068806B704782
:103730001068C06B7047704710B504460068416957
:1037400094F83920C1F3C011212A0BD151B141693C
:1037500021F080014161206B08B1FEF7C6F92046D7
:1037600003F01AFA2068416994F83A20C1F38011F5
:10377000222A0BD151B1416921F040014161606BB6
:1037800008B1FEF7B2F9204603F0F8F9002010BDA9
:1037900001680A680A68D243D20703D14A686FF009
:1037A00001020A6001680A68D243920703D44A689A
:1037B0006FF002020A6001680A68D243520703D41C
:1037C0004A686FF004020A6000680168C94309078B
:1037D00003D4C1686FF008010160704710F8391F09
:1037E000407808437047000070B5026804461068CE
:1037F000D168536910F00F0F52D003F0010501F4A6
:1038000090762E435FD0C20705D0CA0503D5E26B80
:1038100042F00102E263420705D5DA0703D0E26B0A
:1038200042F00202E263820705D5DA0703D0E26BB9
:1038300042F00402E263020707D501F020022A43A6
:1038400003D0E26B42F00802E263E26B002A33D05D
:10385000800604D5880602D5204603F0A6F9206824
:103860004069E16BC0F38010090700D428B32046FB
:1038700003F084F92068416949061AD5416921F0AD
:1038800040014161606BA0B11B490165606BFEF7AF
:1038900073F9002810D0606B016DBDE870400847D7
:1038A000830610D58B060ED52046BDE8704003F088
:1038B0007CB92046FFF76CFF70BD2046FFF768FF1C
:1038C0000020E06370BD030606D50B0604D5204634
:1038D000BDE8704003F048BA4006F3D54806F1D57C
:1038E000D168204621F04001D160202184F83910B0
:1038F00000F026FA70BD0000A56A000870B504004B
:1039000004D094F83900002510B106E0012070BD04
:1039100084F83850204600F023F8242084F8390039
:103920002068C16821F40051C160204603F088F985
:103930002068016921F4904101612068416921F00A
:103940002A0141612068C16841F40051C160E5630A
:10395000202084F8390084F83A00002070BD00006F
:103960002DE9F04F87B0044614216846FCF7D2FCDD
:103970009F4E9E4B0220D4F800C000259C4A103E6A
:10398000032187064FF0070B4FF480694FF0400A80
:103990009C455DD1136843F400331360126802F450
:1039A00000320592326842F0010232603268CDE99D
:1039B000025102F0010205920C22CDE90020CDF85F
:1039C00010B069468B48FEF76DFA306840F400107D
:1039D00030603068894E00F40010059086483060F1
:1039E000C6E90175C6E903597561B561F561B84667
:1039F00035624F4630467562FEF7A0F96663B463E0
:103A00007F4E7D48C6E903577561B561F561356242
:103A10001830756286E801053046FEF78FF9266397
:103A2000002207211020B463FEF7B4FB1020FEF73C
:103A3000A3FB002207211120FEF7ACFB1120FEF7AB
:103A40009BFB002207212620FEF7A4FB262063E033
:103A5000DFF8B0814FF44063C44562D1D2F800C0B2
:103A60004CF4802CC2F800C0126802F48022059247
:103A7000326842F0020232603268CDE9003002F072
:103A80000202CDE90251CDE904B269465E48FEF773
:103A900009FA306840F40010306030685B4E00F482
:103AA000001005905448B84660383060C6E901758A
:103AB000C6E903597561B561F56135624F46304617
:103AC0007562FEF73BF96663B463514E4A48C6E936
:103AD00003577561B561F56135623038756286E806
:103AE00001053046FEF72AF92663002201210C2049
:103AF000B463FEF74FFB0C20FEF73EFB00220121D2
:103B00000E20FEF747FB0E20FEF736FB00220121B8
:103B10002720FEF73FFB2720FEF72EFB07B0BDE86E
:103B2000F08FDFF8F080C445F8D1D2F800C04CF433
:103B3000002CC2F800C0126802F40022059232681C
:103B400042F0040232603268029502F004020592EB
:103B5000CDE900300820CDE9031069462E48FEF774
:103B6000A1F9306840F40010306030682B4E00F44A
:103B7000001005902048B84648383060C6E9017505
:103B8000C6E903597561B561F56135624F46304646
:103B90007562FEF7D3F86663B463214E1648C6E932
:103BA00003577561B561F56135621838756286E84D
:103BB00001053046FEF7C2F82663002201210D20E0
:103BC000B463FEF7E7FA0D20FEF7D6FA00220121D2
:103BD0000F20FEF7DFFA0F20FEF7CEFA00220121B8
:103BE0003420FEF7D7FA342096E700000044004066
:103BF0004038024000000240886002401C0900205A
:103C0000E00B00200048004000040240840A00202D
:103C1000400C0020004C004000080240600B0020D7
:103C2000A00C002037B5044690F83A0082B0134645
:103C300020283AD1039AAAB3A3B394F838000128F4
:103C400033D0012084F83800A262A3850025E56303
:103C5000222084F83A00616B1548C863616B1548EF
:103C60000864616B1448C864606B05652168606B0B
:103C7000091DFEF7CDF8206801684168009184F8BD
:103C80003850C16841F48071C1602068416941F0D9
:103C9000010141612068416941F04001416100201A
:103CA00005B030BDFFE70120FAE70220F8E7000089
:103CB000FF6A00083B6B0008B56A00087047704750
:103CC000F7B5044690F83900202831D1019969B33D
:103CD00062B394F8380001282AD0012084F8380013
:103CE0002162A284E2840025E563212084F8390062
:103CF000236B1048D863236B0F481864236B0F485D
:103D0000D864206B134605652668206B321DFEF7CC
:103D10007FF821686FF04000086084F83850206810
:103D2000416941F0800141610020FEBD0120FEBDDE
:103D30000220FEBD456B0008736B0008B56A0008E1
:103D400000680749884203D106490020087070477F
:103D500005498842FBD10021044802F065BA000001
:103D6000004400405400002000480040BC030020F4
:103D70007047FEE70C4998B101280ED0022807D001
:103D8000032802D091ED0C0A70479FED080A01E06C
:103D90009FED070A81ED0C0A70479FED060AF9E7CF
:103DA0009FED050AF6E70000EC00002000008046C9
:103DB0000000004600008045000000451249082828
:103DC00005D2DFE800F01E1B1815120F0A0791ED4F
:103DD0000D0A70479FED0D0A01E09FED0D0A81ED80
:103DE0000D0A70479FED0B0AF9E79FED0B0AF6E706
:103DF0009FED0A0AF3E79FED0A0AF0E79FED090A33
:103E0000EDE79FED090AEAE7EC00002033130345D4
:103E100033138344331303440000834300000343FC
:103E200000008342333303423333834170B5744D12
:103E3000044628462DED028B002240686978431C19
:103E40009FED708AF1B3DFED701A2E46012996EDD1
:103E5000061AD6ED070A96ED080A41D0022969D163
:103E600094ED032A694B32EE412A84ED032A94ED46
:103E7000042A32EE602A84ED042A94ED052A32EEFB
:103E8000402A84ED052A94ED052AD5ED042A95ED06
:103E9000053AA96872EE622A94ED022A994232EE3E
:103EA000432A01D2491CA960F0EEE22A12EE901AD0
:103EB000574B994208DCB0EEC22A12EE101A554B4D
:103EC000994200E004E038DD4FF47A70686036E033
:103ED000B0F5C87F01D26B6026E001206A6022E065
:103EE000C82812D2D4ED031A31EE811A85ED061AD4
:103EF00094ED041A71EE200AC5ED070AD4ED050A07
:103F000030EE800A85ED080AE5E781EE212A0220DD
:103F100080EEA11A85ED062AC0EE210A85ED071A6A
:103F2000C5ED080A6A60687084ED058A84ED048A2C
:103F300084ED038ABDEC028B70BD50B16868EA6005
:103F4000401E686085ED098A85ED0A8A85ED0B8A39
:103F50004CE02E49A868C91E88423FD9E868401C39
:103F6000E86063281DD995ED092A32EE011A94ED17
:103F7000032A31EE021A85ED091A95ED0A1A71EE3F
:103F8000200A94ED041A70EE810AC5ED0A0AD5EDF7
:103F90000B0A30EE800AD4ED050A30EE200A85EDDA
:103FA0000B0AB0F5967F1FD395ED090A01211A4837
:103FB000C0EE210AC5ED060A95ED0A0AC0EE210AF7
:103FC000C5ED070A95ED0B0AC0EE210AC5ED080AFA
:103FD000AA60EA60642200F09CFA05E085ED098A97
:103FE00085ED0A8A85ED0B8A84ED058A94ED050A34
:103FF00085ED040A94ED020A85ED050A9AE70000B2
:10400000EC000020000000000000484383FC0A0090
:104010000AD7A33BCDCC4C3EC803002010B5DFED42
:10402000430A9FED430A434801F0ECFB752000F082
:10403000A5F904460021762000F0E6F901211120BF
:1040400000F0E2F9642003F01FFC422C01D00020B4
:1040500010BD0121762000F0D7F902217A2000F06E
:10406000D3F90021762000F0CFF94021162000F08E
:10407000CBF9652000F082F904460021652000F0AC
:10408000C3F90021602000F0BFF90221612000F097
:10409000BBF92146652000F0B7F967215F2000F0E9
:1040A000B3F90021762000F0AFF93621142000F09A
:1040B000ABF90021762000F0A7F9652000F05EF949
:1040C00040F00401652000F09FF90220FFF752FE46
:1040D0000021762000F098F9502000F04FF940F0D0
:1040E0004701502000F090F90020FFF767FE002103
:1040F000762000F089F94F2000F040F940F00701E8
:104100004F2000F081F90021762000F07DF94E204B
:1041100000F034F920F0200040F00F014E2000F0B4
:1041200073F9012003F0B0FB012010BD0AD7233C36
:104130006666663F9C4A00202DE9F047884D04469C
:1041400004F140062878B8B1864F4FF0000A0128E4
:104150001AD0022834D003282DD18348FEF7FBFA69
:10416000052828D0012210213846FDF77CFF94F85D
:10417000410040062ED420E014213046FCF7CAF856
:10418000032231462E2022E07748FEF7E4FA052884
:1041900011D0012210213846FDF765FF94F8420046
:1041A00094F8411000EB012024F83E0F208820B144
:1041B0002878401C2870BDE8F08785F800A0FAE751
:1041C00014213046FCF7A6F811223146302000F0C9
:1041D000FBF8EDE794F841008006EED594F8430033
:1041E00094F8421040EA01200FFA80F894F8450054
:1041F00094F8441040EA01200FFA80F994F847003F
:1042000094F8461040EA012006B294F8490094F868
:10421000481040EA012003B294F84B0094F84A1089
:1042200040EA012002B294F84D0094F84C1040EAA4
:10423000012001B294F94E0094F8507094F84FC0E8
:1042400000EE108AD5ED0C0A47EA0C27B8EEC00A3A
:1042500080EE201A00EE109AF8EEC00A84ED001AE3
:1042600095ED0C0A80EE801A00EE906AF8EEE00AF6
:1042700084ED011A80EE801A00EE103AF8EEC00AC2
:1042800084ED021A95ED0D0A80EE801ADFED370AF3
:10429000C1EE201A01EE102AC4ED031AF8EEC11A7D
:1042A00081EE801AC1EE201A01EE101AC4ED041A34
:1042B000F8EEC11A81EE801A81EE200A9FED2C1AC9
:1042C00084ED050A00EE100AF8EEC00A80EE810ABD
:1042D000F3EE090A30EE200A84ED0D0A2787208FBD
:1042E000618F884204D2608F218F4042084402E0EF
:1042F000208F618F401AA087208F60872046FFF7AC
:1043000095FDD4ED052A94ED042AD4ED031A94ED1D
:10431000021AD4ED010A94ED000A9FED163A1648F0
:1043200001F0A2FA144890ED020A84ED060A90ED1D
:10433000030A84ED070A90ED040A84ED080A90ED63
:10434000050A84ED090A90ED060A84ED0A0A90ED4B
:10435000080A84ED0C0A90ED070A84ED0B0A2CE79D
:10436000EC0000200000024084060020E12E65429F
:10437000E17A04400AD7A33B9C4A002011B583B0E0
:1043800000200F4C0246019010212046FDF76BFEE5
:104390009DF80C10022341F080018DF80C100521CE
:1043A000009101AA03A90748FEF725FB012210216D
:1043B0002046FDF758FE9DF8050004B010BD000032
:1043C000000002408406002070B514460D460646E3
:1043D00086B0002210210A48FDF745FE46F0800213
:1043E0000020694603E013180B54401CC0B2A042E1
:1043F000F9D323462A460348FEF7EAFB06B070BD10
:1044000000000240840600201CB5002201928DF8B5
:1044100004000A4C8DF8051010212046FDF723FEFC
:10442000052101AA0091022311460548FEF7E3FA8F
:10443000012210212046FDF716FE1CBD000002409F
:104440008406002003F084FD00F038FE01F054FFE4
:1044500003F09EFD0CE0642003F016FA64220121B3
:10446000094800F056F864220121084800F051F88C
:10447000FFF7D4FD0028EED0012003F005FA044830
:10448000FFF75AFEF8E70000F0030020C803002001
:104490000C05002080ED000AC0ED010A9FED050A21
:1044A00080ED021A80ED030A80ED040A80ED050A12
:1044B000704700000000000030EEC00AF0EE001A65
:1044C00080ED030A90ED030AD0ED040A90ED031A83
:1044D00030EE600AD0ED000A20EE200AD0ED010A8D
:1044E00000EE810AD0ED030A90ED041A41EE610A54
:1044F00090ED051A70EE810A90ED021A01EE200A85
:10450000D0ED040AC0ED050AD0ED030AC0ED040A9F
:1045100070472DE9F0410446008915460E46B04229
:1045200008D16089A84205D1E08800282AD1608896
:10453000002827D126816581012020705EB155B108
:104540004FF6FF7085420AD1218AE0680122BDE85A
:10455000F041FDF788BD218A0022E068F7E7804638
:104560000027218AE06846453A4603D1FDF77BFDE6
:10457000E68004E0FDF777FD08EA4600E080A580CC
:1045800067802770BDE8F08110B50446408810B1FF
:104590006088401E60802078002813D1E0880028C1
:1045A00010D0608800280DD1218AE068FDF754FD05
:1045B000E088A0F57F41FF3902D0E088401EE0800E
:1045C000A088608010BD000003F0C2FC184C4FF4BE
:1045D00000522146174800F033F84FF4804221463C
:1045E000154800F02DF84FF400422146134800F022
:1045F00027F803F0CDFC322202210E48FFF789FF95
:10460000322202210C48FFF784FF322202210B489C
:10461000FFF77FFF012003F037F90648FFF7B4FFEB
:104620000548FFF7B1FF0548FFF7AEFFF2E70000CE
:1046300000080240C8030020DC030020F003002033
:1046400010B50C4686B00021134601704180818070
:10465000C18001814181C4600282344A344894425D
:1046600007D1026842F001020260006800F0010018
:104670004BE0304A944207D1026842F002020260E5
:10468000006800F0020040E02B4A944207D1026823
:1046900042F004020260006800F0040035E0274A9E
:1046A000944207D1026842F008020260006800F0FC
:1046B00008002AE0224A944207D1026842F0100220
:1046C0000260006800F010001FE01E4A944207D10B
:1046D000026842F020020260006800F0200014E04E
:1046E000194A944207D1026842F040020260006811
:1046F00000F0400009E0154A944207D1026842F0F8
:1047000080020260006800F08000059001200093A4
:104710000391CDE90101002219462046FDF7A3FCD3
:1047200069462046FDF7BEFB06B010BD0000024002
:10473000303802400004024000080240000C0240F1
:10474000001002400014024000180240001C024009
:104750002DED048B03F0FCFB00F0DAFD00F02AFDE8
:1047600000F052FD00F07CFD00F0A6FD00F038FFE7
:1047700000F068FF00F096FF00F0C6FFFE48FCF76F
:1047800054FBFE48FCF751FBFD48FCF74EFBFD488F
:10479000FCF74BFB9FEDFC8AFC48B0EE480A00F0AA
:1047A000ADFBB0EE480AFA4800F0A8FBB0EE480AAC
:1047B000F84800F0A3FBB0EE480AF74800F09EFB73
:1047C0009FEDF68AB0EE481ADFEDF58AB8EE040ADE
:1047D000F448F0EE680AFFF75DFEB0EE481AF0EE1E
:1047E000680AB8EE040AF048FFF754FEB0EE481A23
:1047F000F0EE680AB8EE040AEC48FFF74BFEB0EEA4
:10480000481AF0EE680AB8EE040AE948FFF742FEDB
:1048100003F0BEFB00252E46A946A846DFEDE58A3B
:10482000E54CAA469FEDE58A052003F02DF8E44803
:1048300000F0FEFAE24FE34897ED030A10EE101A7B
:10484000814202D99FEDE00A0BE097ED030ADF4AAF
:1048500010EE101A914202DDB0EE680A01E097ED09
:10486000030A87ED030A97ED040A10EE101A81423D
:1048700002D99FEDD50A0BE097ED040AD34A10EE5A
:10488000101A914202DDB0EE680A01E097ED040AC9
:1048900087ED040A97ED050A10EE101A814202D93D
:1048A0009FEDC90A0BE097ED050AC84A10EE101AF1
:1048B000914202DDB0EE680A01E097ED050A87ED4E
:1048C000050A97ED060A10EE101A814202D99FEDF3
:1048D000BE0A0BE097ED060ABC4910EE100A8842AA
:1048E00002DDB0EE680A01E097ED060AA74887ED01
:1048F000060A97ED030A80ED020A00F00BFBDFF8D1
:10490000D0B2A3488BED040A97ED040A80ED020AA9
:1049100000F000FB8BED050A9E4897ED050A80ED3F
:10492000020A00F0F7FA8BED060A9B4897ED060A9B
:1049300080ED020A00F0EEFAA64A8BED070A907AA3
:10494000B8B15068B0F5617F05D9516840F63400C0
:10495000814200D20A2551684FF47A70814204D313
:1049600051684000814200D85068506082F80AA027
:1049700002E00DB16D1EADB2974FB87AB8B178684C
:10498000B0F5617F05D9796840F63400814200D2E4
:104990000A2679684FF47A70814204D3796840001E
:1049A000814200D87868786087F80AA002E00EB1EA
:1049B000761EB6B28949887AC0B14868B0F5617F81
:1049C00006D94B6840F63400834201D24FF00A0901
:1049D0004B684FF47A70834204D34B6840008342A3
:1049E00000D84868486081F80AA006E0B9F1000FD5
:1049F00003D0A9F101001FFA80F97949887AC0B182
:104A00004868B0F5617F06D94B6840F634008342B0
:104A100001D24FF00A084B684FF47A70834204D3F6
:104A20004B684000834200D84868486081F80AA07B
:104A300006E0B8F1000F03D0A8F101001FFA80F8DA
:104A400045EA060040EA090050EA080051D0FDB1ED
:104A500050684FF4FA61A0F2DC50002800FB01F02E
:104A60004FF4FA7190FBF1F009DD5E4940420860B5
:104A7000091D086000F0D6FD00F036FE0EE0594931
:104A80000860091D086000F0A3FD00F003FE05E0CA
:104A90005449C1F800A0091DC1F800A00EB3786800
:104AA0004FF4FA61A0F2DC50002800FB01F04FF453
:104AB000FA7190FBF1F00ADD4A494042091F086093
:104AC000091F086000F0DEFD00F040FE49E14549A5
:104AD000091F0860091F086000F0ACFD00F00CFE23
:104AE0003FE14049091FC1F800A0091FC1F800A01B
:104AF00037E19BED040A3C495F46B0EEC00A10EE78
:104B0000100A884227DD97ED040A10EE100AFBF721
:104B10007EFC9FED361B53EC112BFBF706FC41ECA2
:104B2000100B02F039FEB0EE409AF0EE609A97ED6D
:104B3000040AD7ED000A30EE600AB0EEC00A10EEAB
:104B4000100AFBF764FC53EC192BFBF773FC02D241
:104B50006088401C02E0608808B1401E608097EDCC
:104B6000050A2149B0EEC00A10EE100A884267DD3E
:104B700097ED050A3EE000002C00002034000020E4
:104B80003C00002044000020CDCC4C3D60050020BE
:104B90006C05002078050020840500209A9999BEB4
:104BA000CDCC4CBF540400206C04002084040020B1
:104BB0009C0400200000964300000020000000003C
:104BC000D4040020000096C3000096C30000964362
:104BD000B4040020AC050020B8050020C405002066
:104BE000D00500203C0401400000204100000000EE
:104BF0000000E03F10EE100AFBF709FC1FED051B5B
:104C000053EC112BFBF791FB41EC100B02F0C4FDB0
:104C1000B0EE409AF0EE609A97ED050AD7ED010AE2
:104C200030EE600AB0EEC00A10EE100AFBF7EFFBA0
:104C300053EC192BFBF7FEFB02D2A088401C02E0CC
:104C4000A08808B1401EA08097ED060A7448B0EE17
:104C5000C00A10EE101A814227DD97ED060A10EE09
:104C6000100AFBF7D4FB1FED1F1B53EC112BFBF7B6
:104C70005CFB41EC100B02F08FFDB0EE409AF0EEC1
:104C8000609A97ED060AD7ED020A30EE600AB0EEA0
:104C9000C00A10EE100AFBF7BAFB53EC192BFBF716
:104CA000C9FB02D2E088401C02E0E08808B1401E47
:104CB000E08097ED070A5A49B0EEC00A10EE100ADC
:104CC000884227DD97ED070A10EE100AFBF79FFBDD
:104CD0001FED3A1B53EC112BFBF727FB41EC100B9C
:104CE00002F05AFDB0EE409AF0EE609A97ED070A96
:104CF000D7ED030A30EE600AB0EEC00A10EE100ADB
:104D0000FBF785FB53EC192BFBF794FB02D22089B0
:104D1000401C02E0208908B1401E208160884FF4C9
:104D2000167188420AD8A088884207D8E08888424D
:104D300004D82089884201D8607878B187ED078A45
:104D400087ED068A87ED058A012087ED048A607069
:104D500001464FF4FA723348FFF7DBFB324802F0AA
:104D60000BF92078314F401CC0B2207097ED030A38
:104D7000DBED000A012830EE200A87ED030A97EDEB
:104D8000040ADBED010A30EE200A87ED040A97EDF4
:104D9000050ADBED020A30EE200A87ED050A97EDE1
:104DA000060ADBED030A30EE200A87ED060A7FF6DD
:104DB0003BAD00EE100AD7ED030AB8EE400A80EED4
:104DC000801A00EE100AB8EE400A87ED031AD7EDFC
:104DD000040A80EE801A00EE100AB8EE400A87ED51
:104DE000041AD7ED050A80EE801A00EE100A384644
:104DF000B8EE400A87ED051AD7ED060A80EE801A54
:104E000087ED061A00F03CF887ED068A87ED058AE3
:104E100087ED048A87ED038A84F800A004E500008A
:104E200000002041C8030020B4040020F00400204A
:104E300090ED000ADFED0F0A90ED021ADFED0F1A78
:104E400020EE200A61EE200A9FED0B1A20EE811A57
:104E5000C0EE210A81EE210A30EEC01A30EE800A3F
:104E600080ED031A80ED040A80ED051A80ED060A34
:104E7000704700000000704248BF9D3E5724FE3E30
:104E800090ED030AD0ED040AF5EE001A30EE200A88
:104E9000D0ED050A30EE200AD0ED060A30EE200AE9
:104EA000DFED130A20EE211A81EE200A9FED111A80
:104EB00020EE010A80ED000A90ED040A90ED032A2D
:104EC00030EE420A90ED052A30EE420A90ED062AB5
:104ED00030EE020A60EE211A81EEA00ADFED060A2A
:104EE00020EE010A80EE201A80ED021A70470000C1
:104EF000000070425724FE3E48BF9D3E80ED000AF0
:104F00009FED030A80ED010A80ED020A7047000060
:104F10000000000090ED000AD0ED020AB7EE001A82
:104F200020EE200AD0ED000A71EE600A90ED011A21
:104F300000EE810A80ED010A90ED010A7047000041
:104F40007FB518481649012401604FF48031416053
:104F5000002104618160047680F82010124AC0E9C3
:104F60000A210225C561C16080F830404161FCF72B
:104F70004CF90820CDE90004032002906946094855
:104F8000FCF79AF81120CDE9000569460548FCF7C1
:104F900093F8022205490348FCF7B4F97FBD0000ED
:104FA00000200140DC0500200100000F500000201F
:104FB00030B51C488BB01A49016003210024C0E9B8
:104FC00001144904C0E903414FF4A0014161047692
:104FD000012545768576C47604774577FCF749FC4C
:104FE000CDE9064500940394049401940294089535
:104FF00069460C4809950594FCF730FA0948FCF716
:1050000042FD02210748FCF717FA10210548FCF77A
:1050100013FA01210348FCF70FFA0BB030BD000072
:1050200000640040000D002010B5AAB01C222149E8
:105030006846FBF756F90021684602F031FC1E4C29
:105040001C491C22E0601C3107A8FBF74AF900212B
:1050500007A802F025FC174920611C2238310EA850
:10506000FBF73FF900210EA802F01AFC114960611C
:105070001C22543115A8FBF734F9002115A802F0C1
:105080000FFC0C49A0611C2270311CA8FBF729F908
:1050900000211CA802F004FC064920621C228C316D
:1050A00023A8FBF71EF9002123A802F0F9FBE06119
:1050B0002AB010BD90890008000000200C480B4960
:1050C0004FF4007201604FF48271416000218160F1
:1050D000C1600161C0E905122022C0E907214162D7
:1050E00081620A21C162FDF7B7BB000000300140B8
:1050F000840600207CB500252D4C00952B48019599
:105100002060A720C4E901054FF6FF70C4E903053C
:1051100065612046A561FEF761F800956946204665
:105120000195FDF71FFEA4F110000121C0E9005117
:105130000F21C0E90251014600221030FDF7C0FFE7
:105140000422A4F110012046FDF7BAFF0822A4F1C1
:1051500010012046FDF7B4FF0C22A4F110012046F7
:10516000FDF7AEFF2168E81E086121686FF00400BA
:10517000086121686FF00800086121686FF0100075
:1051800008612046FDF752FE00212046FEF786F812
:1051900004212046FEF782F808212046FEF77EF81B
:1051A0000C212046FEF77AF87CBD0000000001408B
:1051B0006C0D002010B5134C8AB04FF080430020D6
:1051C000C4E900304FF6FF71C4E9020120610321F8
:1051D000CDE90010012202920F21CDE90301CDE9B2
:1051E0000502CDE90701586269462046FDF72FFE0A
:1051F00021686FF00100086104212046FDF720FFBF
:105200000AB010BD9C07002010B5144C8AB0124B98
:105210000020C4E900304FF6FF71C4E902012061AB
:105220000321CDE90010012202920F21CDE90301F3
:10523000CDE90502CDE90701586269462046FDF730
:1052400006FE21686FF00100086104212046FDF789
:10525000F7FE0AB010BD000000040040DC0700208B
:1052600010B5144C8AB0124B0020C4E900304FF640
:10527000FF71C4E9020120610321CDE90010012280
:1052800002920F21CDE90301CDE90502CDE9070125
:10529000586269462046FDF7DAFD21686FF001008B
:1052A000086104212046FDF7CBFE0AB010BD0000C6
:1052B000000800401C08002010B5144C8AB0124BA6
:1052C0000020C4E900304FF6FF71C4E902012061FB
:1052D0000321CDE90010012202920F21CDE9030143
:1052E000CDE90502CDE90701586269462046FDF780
:1052F000AEFD21686FF00100086104212046FDF732
:105300009FFE0AB010BD0000000C00405C080020A9
:1053100010B5294892B0274901600321416040F24D
:10532000CF710024C0E90314846044618461FEF7F6
:10533000FCF80F940FA920481094FDF713FD60208E
:10534000CDE9000402940394049405940022694674
:1053500019480694FEF781F8042269461648FEF7BC
:105360007CF8082269461448FEF777F80C22694653
:105370001148FEF772F80794089409944FF400500E
:105380000A94CDE90B4007A90B480E94FDF7BFFC2A
:1053900000210948FEF736F904210748FEF732F9E3
:1053A00008210548FEF72EF90C210348FEF72AF9DB
:1053B00012B010BD000401409C08002010B5114C33
:1053C0000F484FF4806120600F4860604FF48050B8
:1053D000A0600020C4E903010C21C4E90510E061CC
:1053E0002046FEF78BFA1E2204F1A0012046FEF7AC
:1053F00019FC2068C16841F01001C16010BD0000B7
:10540000004C0040200B0020A086010010B50F4C7E
:105410000D480C2120604FF4613060600020A060D6
:10542000E060C4E90401A061E0612046FEF766FA8D
:10543000642204F1A0012046FEF7F4FB2068C16855
:1054400041F01001C16010BD00440040DC080020A4
:1054500010B50F4C0D480C2120604FF46130606096
:105460000020A060E060C4E90401A061E061204682
:10547000FEF744FA3C2204F1A0012046FEF7D2FBDD
:105480002068C16841F01001C16010BD00480040B3
:10549000440A0020FEE700002DED028B02F058FDCB
:1054A000FFF78CFF3F4800F073FB02F071FD3D4FAA
:1054B0003D4D9FED3E8A3E4EDFF8F880DFF8F890D4
:1054C000DFF8F8A03E4CDFED3F8ADFF8FCB00A20A1
:1054D00002F0DAF9788F10B1788F401E7887788FD4
:1054E00010B1387C02281BD0BBF80C105846E1B331
:1054F00006212970B7EE000A86ED000A88ED000A41
:1055000089ED000A8AED000A90ED000A84ED000A98
:1055100090ED020A84ED020A8189491E8181D6E755
:1055200005202870322201212848FEF7F2FF86ED7F
:10553000008A88ED008A89ED008A8AED008A97ED5D
:10554000010AF7EE080A584620EE200AF0EE000A9B
:1055500084ED000A97ED020A20EE200A84ED020A8B
:10556000CBED028ACBED018A00E003E0CBED008AAF
:105570000021D3E70021297086ED008A88ED008A9A
:1055800089ED008A8AED008AC0ED028AC0ED018AA9
:10559000C0ED008AC4ED008AC4ED018AC4ED028A20
:1055A00095E700001804002028000020CDCC4C3DD9
:1055B00084050020780500206C050020600500208F
:1055C000D40400200000000090050020DC0300202F
:1055D000012202210148FCF746BD000000080240FC
:1055E0000E4810B5016886B041F004010160006802
:1055F0000B4C00F004000590022000900120019067
:1056000003200390002202212046FCF72CFD69466E
:105610002046FCF747FC06B010BD000030380240C1
:1056200000080240002202210148FCF71CBD0000D6
:1056300000080240002201210148FCF714BD0000CF
:10564000000802400D4810B5016886B041F0040121
:10565000016000680A4C00F00400059001200090F1
:10566000019003200390002201212046FCF7FBFC5F
:1056700069462046FCF716FC06B010BD30380240E3
:1056800000080240012211460148FCF7ECBC000072
:1056900000080240012204210148FCF7E4BC00009C
:1056A000000802400E4810B5016886B041F00401C0
:1056B000016000680B4C00F004000590042000908D
:1056C0000120019003200390002204212046FCF7D2
:1056D000CAFC69462046FCF7E5FB06B010BD000099
:1056E0003038024000080240002204210148FCF743
:1056F000BABC000000080240002208210148FCF763
:10570000B2BC0000000802400E4810B5016886B027
:1057100041F00401016000680B4C00F004000590AA
:10572000082000900120019003200390002208210E
:105730002046FCF798FC69462046FCF7B3FB06B010
:1057400010BD00003038024000080240012208214C
:105750000148FCF788BC000000080240704770B5A3
:10576000027A012500243AB9C37A4268D154EF295C
:1057700011D0FE290DD04472C37A42689178891CF9
:105780008B4226D9817A21B391780023C91CC9B2F2
:1057900014E04572F0E7417A0029EDD04472857239
:1057A0004268FE2111704268EF2151700188426801
:1057B0009170C572E0E7565C3344DBB2491EC9B252
:1057C000F9D291781144C978994200D10572447296
:1057D0008472C27A0188491E8A4203DAC17A491C5E
:1057E000C17270BDC47270BD70B5002504460572EB
:1057F0000180084602F0BCFA60606572A572E5722D
:1058000070BD000080ED000AC0ED010AB7EE000A8D
:1058100080ED020A9FED130A80ED030A80ED040A71
:1058200080ED050A80ED060A80ED070A80ED080A82
:1058300080ED090A80ED0A0A80ED0B0A80ED0C0A62
:1058400080ED0D0A80ED0E0A80ED0F0A80ED100A42
:1058500080ED110A80ED120A80ED130A80ED140A22
:10586000704700000000000031B504462DED080B24
:105870002DED108BF0EE40EAB6EE000AB0EE00BA65
:1058800023EE008AF7EE00BAB0EE42FAF0EE6BAA11
:10589000F0EE61FAD0ED039A90ED059A90ED02AA30
:1058A000D0ED048A29EE890AF0EE41CAB0EE60DA42
:1058B0000AEE680A20EE0BEA2AEE290A08EE890AA7
:1058C00060EE0BDA29EEA90A08EEA80A40EE4BAA10
:1058D0009FEDA9CA2EEEAE0A0DEE0D0A0CEEAC0A33
:1058E00001F064FF8DEE001ACCEE800A21EE2A1A38
:1058F000CEEE801A00EEED1A60EE8E0A41EEEA0A54
:10590000D4ED0C1A9FED9D0A94ED0C2A9C4928EECB
:10591000000A31EE421A40EE011AC4ED0C1AD4ED21
:105920000D1A94ED0D1A70EEE10A00EE201A84EDC6
:105930000D1A94ED0C0A84ED090A94ED0D0A84ED1C
:105940000A0A94ED090AD4ED010A20EE200A60EE5D
:105950000B0A94ED0F0A00EE880A84ED0F0A94ED0D
:105960000A0AD4ED010A20EE200A60EE0B0A94ED3B
:10597000100A00EE880A84ED100A94ED0B0AD4EDAB
:10598000010A20EE200A60EE0B0A94ED110A00EEE7
:10599000880A84ED110A94ED0F0A10EE102A9FED8B
:1059A000790A79489FED791A8A4202D9F0EE400AC5
:1059B0000AE0D4ED0F0A10EE902A824202DDF0EEEA
:1059C000410A01E0D4ED0F0AC4ED0F0AD4ED100A2C
:1059D00010EE902A8A4202D9F0EE400A0AE0D4ED95
:1059E000100A10EE902A824202DDF0EE410A01E038
:1059F000D4ED100AC4ED100AD4ED110A10EE902A6D
:105A00008A420AD894ED110A10EE101A814202DD82
:105A1000B0EE410A01E094ED110A4EEE4CFA84ED2D
:105A2000110A94ED090AD4ED0F0A0DEECCFA30EE0E
:105A3000200AD4ED000A40EE80FAC4ED12FA94ED8B
:105A40000A0AD4ED100A30EE200AD4ED000A00EE66
:105A500080FA84ED13FA9DED150A0AEECC0A84ED66
:105A6000140A94ED120AD4ED130A29EEC00A08EEC6
:105A7000E00AD4ED140A09EE600AD4ED140A00EE2F
:105A800008AA94ED120A20EE0A0A08EEA00AD4ED44
:105A9000130A09EE600AD4ED140A40EE089A94ED58
:105AA000130A20EE0A0A09EEE00AD4ED120A09EE02
:105AB000200AD4ED130A40EE088A94ED140A20EE71
:105AC0000A0A09EEA00AD4ED120A08EEE00A00EE76
:105AD000089A2AEE0A0A09EEA90A08EEA80A09EEAF
